{
  "address": "0xacDf1005fAb67C13603C19aC5471F0c7dDBc90b2",
  "abi": [
    {
      "anonymous": false,
      "inputs": [
        {
          "indexed": false,
          "internalType": "bytes32",
          "name": "challenge",
          "type": "bytes32"
        },
        {
          "indexed": false,
          "internalType": "uint256",
          "name": "difficulty",
          "type": "uint256"
        }
      ],
      "name": "GenerateChallenge",
      "type": "event"
    },
    {
      "anonymous": false,
      "inputs": [
        {
          "indexed": false,
          "internalType": "uint8",
          "name": "version",
          "type": "uint8"
        }
      ],
      "name": "Initialized",
      "type": "event"
    },
    {
      "anonymous": false,
      "inputs": [],
      "name": "NewPowRound",
      "type": "event"
    },
    {
      "anonymous": false,
      "inputs": [
        {
          "indexed": true,
          "internalType": "address",
          "name": "previousOwner",
          "type": "address"
        },
        {
          "indexed": true,
          "internalType": "address",
          "name": "newOwner",
          "type": "address"
        }
      ],
      "name": "OwnershipTransferred",
      "type": "event"
    },
    {
      "anonymous": false,
      "inputs": [
        {
          "indexed": true,
          "internalType": "address",
          "name": "walletAddress",
          "type": "address"
        },
        {
          "indexed": false,
          "internalType": "string",
          "name": "nodeId",
          "type": "string"
        },
        {
          "indexed": false,
          "internalType": "uint256",
          "name": "nonce",
          "type": "uint256"
        },
        {
          "indexed": false,
          "internalType": "uint256",
          "name": "timestamp",
          "type": "uint256"
        },
        {
          "indexed": false,
          "internalType": "bytes32",
          "name": "challenge",
          "type": "bytes32"
        },
        {
          "indexed": false,
          "internalType": "uint256",
          "name": "difficulty",
          "type": "uint256"
        }
      ],
      "name": "ValidPOWSubmitted",
      "type": "event"
    },
    {
      "inputs": [],
      "name": "TARGET_DIFFICULTY",
      "outputs": [
        {
          "internalType": "uint256",
          "name": "",
          "type": "uint256"
        }
      ],
      "stateMutability": "view",
      "type": "function"
    },
    {
      "inputs": [],
      "name": "calculate_difficulty",
      "outputs": [
        {
          "internalType": "uint256",
          "name": "",
          "type": "uint256"
        }
      ],
      "stateMutability": "view",
      "type": "function"
    },
    {
      "inputs": [],
      "name": "checkTimeWindow",
      "outputs": [],
      "stateMutability": "view",
      "type": "function"
    },
    {
      "inputs": [
        {
          "internalType": "string",
          "name": "nodeId",
          "type": "string"
        }
      ],
      "name": "generateChallenge",
      "outputs": [],
      "stateMutability": "nonpayable",
      "type": "function"
    },
    {
      "inputs": [],
      "name": "getMiners",
      "outputs": [
        {
          "internalType": "address[]",
          "name": "",
          "type": "address[]"
        }
      ],
      "stateMutability": "view",
      "type": "function"
    },
    {
      "inputs": [],
      "name": "initialize",
      "outputs": [],
      "stateMutability": "nonpayable",
      "type": "function"
    },
    {
      "inputs": [
        {
          "internalType": "address",
          "name": "",
          "type": "address"
        }
      ],
      "name": "lastChallenges",
      "outputs": [
        {
          "internalType": "bytes32",
          "name": "challenge",
          "type": "bytes32"
        },
        {
          "internalType": "uint256",
          "name": "difficulty",
          "type": "uint256"
        },
        {
          "internalType": "string",
          "name": "nodeId",
          "type": "string"
        },
        {
          "internalType": "uint256",
          "name": "timestamp",
          "type": "uint256"
        }
      ],
      "stateMutability": "view",
      "type": "function"
    },
    {
      "inputs": [
        {
          "internalType": "address",
          "name": "",
          "type": "address"
        }
      ],
      "name": "minerSubmissionCount",
      "outputs": [
        {
          "internalType": "uint256",
          "name": "",
          "type": "uint256"
        }
      ],
      "stateMutability": "view",
      "type": "function"
    },
    {
      "inputs": [
        {
          "internalType": "uint256",
          "name": "",
          "type": "uint256"
        }
      ],
      "name": "miners",
      "outputs": [
        {
          "internalType": "address",
          "name": "",
          "type": "address"
        }
      ],
      "stateMutability": "view",
      "type": "function"
    },
    {
      "inputs": [],
      "name": "owner",
      "outputs": [
        {
          "internalType": "address",
          "name": "",
          "type": "address"
        }
      ],
      "stateMutability": "view",
      "type": "function"
    },
    {
      "inputs": [
        {
          "internalType": "address",
          "name": "",
          "type": "address"
        },
        {
          "internalType": "uint256",
          "name": "",
          "type": "uint256"
        }
      ],
      "name": "powSubmissions",
      "outputs": [
        {
          "internalType": "address",
          "name": "walletAddress",
          "type": "address"
        },
        {
          "internalType": "string",
          "name": "nodeId",
          "type": "string"
        },
        {
          "internalType": "uint256",
          "name": "nonce",
          "type": "uint256"
        },
        {
          "internalType": "uint256",
          "name": "start_timestap",
          "type": "uint256"
        },
        {
          "internalType": "uint256",
          "name": "complete_timestap",
          "type": "uint256"
        },
        {
          "internalType": "bytes32",
          "name": "challenge",
          "type": "bytes32"
        },
        {
          "internalType": "uint256",
          "name": "difficulty",
          "type": "uint256"
        }
      ],
      "stateMutability": "view",
      "type": "function"
    },
    {
      "inputs": [],
      "name": "renounceOwnership",
      "outputs": [],
      "stateMutability": "nonpayable",
      "type": "function"
    },
    {
      "inputs": [],
      "name": "startTime",
      "outputs": [
        {
          "internalType": "uint256",
          "name": "",
          "type": "uint256"
        }
      ],
      "stateMutability": "view",
      "type": "function"
    },
    {
      "inputs": [
        {
          "internalType": "uint256",
          "name": "nonce",
          "type": "uint256"
        },
        {
          "internalType": "string",
          "name": "nodeId",
          "type": "string"
        }
      ],
      "name": "submitWork",
      "outputs": [],
      "stateMutability": "nonpayable",
      "type": "function"
    },
    {
      "inputs": [
        {
          "internalType": "address",
          "name": "newOwner",
          "type": "address"
        }
      ],
      "name": "transferOwnership",
      "outputs": [],
      "stateMutability": "nonpayable",
      "type": "function"
    },
    {
      "inputs": [],
      "name": "triggerNewPowRound",
      "outputs": [],
      "stateMutability": "nonpayable",
      "type": "function"
    },
    {
      "inputs": [],
      "name": "validProofs",
      "outputs": [
        {
          "internalType": "uint256",
          "name": "",
          "type": "uint256"
        }
      ],
      "stateMutability": "view",
      "type": "function"
    },
    {
      "inputs": [],
      "name": "window_end",
      "outputs": [
        {
          "internalType": "uint256",
          "name": "",
          "type": "uint256"
        }
      ],
      "stateMutability": "view",
      "type": "function"
    },
    {
      "inputs": [],
      "name": "window_start",
      "outputs": [
        {
          "internalType": "uint256",
          "name": "",
          "type": "uint256"
        }
      ],
      "stateMutability": "view",
      "type": "function"
    }
  ],
  "transactionHash": "0xddf8ea9ac73581bd520fa4cde42cf13c8c05969c15dfd259d28f49ec03049978",
  "args": [],
  "numDeployments": 1,
  "solcInputHash": "4da1c3755a4d6211296e1fdf692059eb",
  "bytecode": "0x60a06040527c5269a8a800000000000000000000000000000000000000000000000000608090815250348015610033575f80fd5b5061005061004561005560201b60201c565b61005c60201b60201c565b61011d565b5f33905090565b5f805f9054906101000a900473ffffffffffffffffffffffffffffffffffffffff169050815f806101000a81548173ffffffffffffffffffffffffffffffffffffffff021916908373ffffffffffffffffffffffffffffffffffffffff1602179055508173ffffffffffffffffffffffffffffffffffffffff168173ffffffffffffffffffffffffffffffffffffffff167f8be0079c531659141344cd1fd0a4f28419497f9722a3daafe3b4186f6b6457e060405160405180910390a35050565b608051611ffe61013c5f395f818161041a0152610fd00152611ffe5ff3fe608060405234801561000f575f80fd5b506004361061011f575f3560e01c80638da5cb5b116100ab578063bfb660de1161006f578063bfb660de146102c8578063da8accf9146102d2578063e0d152af146102ee578063f2fde38b1461031e578063f6f851681461033a5761011f565b80638da5cb5b14610248578063a738bf8f14610266578063ab09894514610284578063b28d87ea146102a0578063b681f2fd146102be5761011f565b80634bbe05e4116100f25780634bbe05e4146101ad5780636189f3ac146101e3578063715018a61461021657806378e97925146102205780638129fc1c1461023e5761011f565b8063148c684a146101235780631633da6e146101535780632d68c39714610171578063331bade11461018f575b5f80fd5b61013d600480360381019061013891906111bc565b610358565b60405161014a91906111ff565b60405180910390f35b61015b61036d565b60405161016891906112cf565b60405180910390f35b6101796103f8565b60405161018691906111ff565b60405180910390f35b610197610453565b6040516101a491906111ff565b60405180910390f35b6101c760048036038101906101c29190611319565b610459565b6040516101da9796959493929190611408565b60405180910390f35b6101fd60048036038101906101f891906111bc565b610556565b60405161020d949392919061147c565b60405180910390f35b61021e610608565b005b61022861061b565b60405161023591906111ff565b60405180910390f35b610246610621565b005b610250610756565b60405161025d91906114c6565b60405180910390f35b61026e61077d565b60405161027b91906111ff565b60405180910390f35b61029e60048036038101906102999190611540565b610783565b005b6102a86108df565b6040516102b591906111ff565b60405180910390f35b6102c66108e5565b005b6102d0610935565b005b6102ec60048036038101906102e7919061158b565b61097b565b005b610308600480360381019061030391906115e8565b610f11565b60405161031591906114c6565b60405180910390f35b610338600480360381019061033391906111bc565b610f4c565b005b610342610fce565b60405161034f91906111ff565b60405180910390f35b6002602052805f5260405f205f915090505481565b606060038054806020026020016040519081016040528092919081815260200182805480156103ee57602002820191905f5260205f20905b815f9054906101000a900473ffffffffffffffffffffffffffffffffffffffff1673ffffffffffffffffffffffffffffffffffffffff16815260200190600101908083116103a5575b5050505050905090565b5f806015446104079190611640565b605a610413919061169d565b90506064817f000000000000000000000000000000000000000000000000000000000000000061044391906116d0565b61044d9190611711565b91505090565b60075481565b6001602052815f5260405f208181548110610472575f80fd5b905f5260205f2090600702015f9150915050805f015f9054906101000a900473ffffffffffffffffffffffffffffffffffffffff16908060010180546104b79061176e565b80601f01602080910402602001604051908101604052809291908181526020018280546104e39061176e565b801561052e5780601f106105055761010080835404028352916020019161052e565b820191905f5260205f20905b81548152906001019060200180831161051157829003601f168201915b5050505050908060020154908060030154908060040154908060050154908060060154905087565b6004602052805f5260405f205f91509050805f0154908060010154908060020180546105819061176e565b80601f01602080910402602001604051908101604052809291908181526020018280546105ad9061176e565b80156105f85780601f106105cf576101008083540402835291602001916105f8565b820191905f5260205f20905b8154815290600101906020018083116105db57829003601f168201915b5050505050908060030154905084565b610610610ff2565b6106195f611070565b565b60065481565b5f8060159054906101000a900460ff16159050808015610652575060015f60149054906101000a900460ff1660ff16105b80610680575061066130611131565b15801561067f575060015f60149054906101000a900460ff1660ff16145b5b6106bf576040517f08c379a00000000000000000000000000000000000000000000000000000000081526004016106b69061180e565b60405180910390fd5b60015f60146101000a81548160ff021916908360ff16021790555080156106fb5760015f60156101000a81548160ff0219169083151502179055505b8015610753575f8060156101000a81548160ff0219169083151502179055507f7f26b83ff96e1f2b6a682f133852f6798a09c465da95921460cefb3847402498600160405161074a919061187a565b60405180910390a15b50565b5f805f9054906101000a900473ffffffffffffffffffffffffffffffffffffffff16905090565b60085481565b61078b610935565b5f426007543385856040516020016107a7959493929190611934565b6040516020818303038152906040528051906020012090505f6107c86103f8565b9050604051806080016040528083815260200182815260200185858080601f0160208091040260200160405190810160405280939291908181526020018383808284375f81840152601f19601f8201169050808301925050505050505081526020014281525060045f3373ffffffffffffffffffffffffffffffffffffffff1673ffffffffffffffffffffffffffffffffffffffff1681526020019081526020015f205f820151815f01556020820151816001015560408201518160020190816108929190611b40565b50606082015181600301559050507f496186a9d930bac0744acdcd1d0c054b18283eecbe99d30bda98102d3d06b8ef82826040516108d1929190611c0f565b60405180910390a150505050565b60055481565b6108ed610ff2565b43600781905550601e43610901919061169d565b6008819055507f10cc99616aca050d810fd487c95f968e516d0fa25318530ed50753153d060a1e60405160405180910390a1565b6008544310610979576040517f08c379a000000000000000000000000000000000000000000000000000000000815260040161097090611c80565b60405180910390fd5b565b610983610935565b5f60045f3373ffffffffffffffffffffffffffffffffffffffff1673ffffffffffffffffffffffffffffffffffffffff1681526020019081526020015f206040518060800160405290815f8201548152602001600182015481526020016002820180546109ef9061176e565b80601f0160208091040260200160405190810160405280929190818152602001828054610a1b9061176e565b8015610a665780601f10610a3d57610100808354040283529160200191610a66565b820191905f5260205f20905b815481529060010190602001808311610a4957829003601f168201915b5050505050815260200160038201548152505090505f8160600151600754338686604051602001610a9b959493929190611934565b60405160208183030381529060405280519060200120905080825f015114610af8576040517f08c379a0000000000000000000000000000000000000000000000000000000008152600401610aef90611d0e565b60405180910390fd5b5f8186604051602001610b0c929190611d4c565b6040516020818303038152906040528051906020012090508260200151815f1c10610b6c576040517f08c379a0000000000000000000000000000000000000000000000000000000008152600401610b6390611de7565b60405180910390fd5b60055f815480929190610b7e90611e05565b91905055505f60025f3373ffffffffffffffffffffffffffffffffffffffff1673ffffffffffffffffffffffffffffffffffffffff1681526020019081526020015f205403610c2857600333908060018154018082558091505060019003905f5260205f20015f9091909190916101000a81548173ffffffffffffffffffffffffffffffffffffffff021916908373ffffffffffffffffffffffffffffffffffffffff1602179055505b60025f3373ffffffffffffffffffffffffffffffffffffffff1673ffffffffffffffffffffffffffffffffffffffff1681526020019081526020015f205f815480929190610c7590611e05565b91905055505f60015f3373ffffffffffffffffffffffffffffffffffffffff1673ffffffffffffffffffffffffffffffffffffffff1681526020019081526020015f209050806040518060e001604052803373ffffffffffffffffffffffffffffffffffffffff16815260200188888080601f0160208091040260200160405190810160405280939291908181526020018383808284375f81840152601f19601f82011690508083019250505050505050815260200189815260200186606001518152602001428152602001865f015181526020018660200151815250908060018154018082558091505060019003905f5260205f2090600702015f909190919091505f820151815f015f6101000a81548173ffffffffffffffffffffffffffffffffffffffff021916908373ffffffffffffffffffffffffffffffffffffffff1602179055506020820151816001019081610dd19190611b40565b5060408201518160020155606082015181600301556080820151816004015560a0820151816005015560c08201518160060155505060405180608001604052805f801b81526020015f815260200160405180602001604052805f81525081526020015f81525060045f3373ffffffffffffffffffffffffffffffffffffffff1673ffffffffffffffffffffffffffffffffffffffff1681526020019081526020015f205f820151815f0155602082015181600101556040820151816002019081610e9b9190611b40565b50606082015181600301559050503373ffffffffffffffffffffffffffffffffffffffff167f5ea61d67e3236a79ab8c3c29f810e2c408b0a6b1e19f4e0da2fcd6362129c86087878a42895f01518a60200151604051610f0096959493929190611e78565b60405180910390a250505050505050565b60038181548110610f20575f80fd5b905f5260205f20015f915054906101000a900473ffffffffffffffffffffffffffffffffffffffff1681565b610f54610ff2565b5f73ffffffffffffffffffffffffffffffffffffffff168173ffffffffffffffffffffffffffffffffffffffff1603610fc2576040517f08c379a0000000000000000000000000000000000000000000000000000000008152600401610fb990611f42565b60405180910390fd5b610fcb81611070565b50565b7f000000000000000000000000000000000000000000000000000000000000000081565b610ffa611153565b73ffffffffffffffffffffffffffffffffffffffff16611018610756565b73ffffffffffffffffffffffffffffffffffffffff161461106e576040517f08c379a000000000000000000000000000000000000000000000000000000000815260040161106590611faa565b60405180910390fd5b565b5f805f9054906101000a900473ffffffffffffffffffffffffffffffffffffffff169050815f806101000a81548173ffffffffffffffffffffffffffffffffffffffff021916908373ffffffffffffffffffffffffffffffffffffffff1602179055508173ffffffffffffffffffffffffffffffffffffffff168173ffffffffffffffffffffffffffffffffffffffff167f8be0079c531659141344cd1fd0a4f28419497f9722a3daafe3b4186f6b6457e060405160405180910390a35050565b5f808273ffffffffffffffffffffffffffffffffffffffff163b119050919050565b5f33905090565b5f80fd5b5f80fd5b5f73ffffffffffffffffffffffffffffffffffffffff82169050919050565b5f61118b82611162565b9050919050565b61119b81611181565b81146111a5575f80fd5b50565b5f813590506111b681611192565b92915050565b5f602082840312156111d1576111d061115a565b5b5f6111de848285016111a8565b91505092915050565b5f819050919050565b6111f9816111e7565b82525050565b5f6020820190506112125f8301846111f0565b92915050565b5f81519050919050565b5f82825260208201905092915050565b5f819050602082019050919050565b61124a81611181565b82525050565b5f61125b8383611241565b60208301905092915050565b5f602082019050919050565b5f61127d82611218565b6112878185611222565b935061129283611232565b805f5b838110156112c25781516112a98882611250565b97506112b483611267565b925050600181019050611295565b5085935050505092915050565b5f6020820190508181035f8301526112e78184611273565b905092915050565b6112f8816111e7565b8114611302575f80fd5b50565b5f81359050611313816112ef565b92915050565b5f806040838503121561132f5761132e61115a565b5b5f61133c858286016111a8565b925050602061134d85828601611305565b9150509250929050565b61136081611181565b82525050565b5f81519050919050565b5f82825260208201905092915050565b5f5b8381101561139d578082015181840152602081019050611382565b5f8484015250505050565b5f601f19601f8301169050919050565b5f6113c282611366565b6113cc8185611370565b93506113dc818560208601611380565b6113e5816113a8565b840191505092915050565b5f819050919050565b611402816113f0565b82525050565b5f60e08201905061141b5f83018a611357565b818103602083015261142d81896113b8565b905061143c60408301886111f0565b61144960608301876111f0565b61145660808301866111f0565b61146360a08301856113f9565b61147060c08301846111f0565b98975050505050505050565b5f60808201905061148f5f8301876113f9565b61149c60208301866111f0565b81810360408301526114ae81856113b8565b90506114bd60608301846111f0565b95945050505050565b5f6020820190506114d95f830184611357565b92915050565b5f80fd5b5f80fd5b5f80fd5b5f8083601f840112611500576114ff6114df565b5b8235905067ffffffffffffffff81111561151d5761151c6114e3565b5b602083019150836001820283011115611539576115386114e7565b5b9250929050565b5f80602083850312156115565761155561115a565b5b5f83013567ffffffffffffffff8111156115735761157261115e565b5b61157f858286016114eb565b92509250509250929050565b5f805f604084860312156115a2576115a161115a565b5b5f6115af86828701611305565b935050602084013567ffffffffffffffff8111156115d0576115cf61115e565b5b6115dc868287016114eb565b92509250509250925092565b5f602082840312156115fd576115fc61115a565b5b5f61160a84828501611305565b91505092915050565b7f4e487b71000000000000000000000000000000000000000000000000000000005f52601260045260245ffd5b5f61164a826111e7565b9150611655836111e7565b92508261166557611664611613565b5b828206905092915050565b7f4e487b71000000000000000000000000000000000000000000000000000000005f52601160045260245ffd5b5f6116a7826111e7565b91506116b2836111e7565b92508282019050808211156116ca576116c9611670565b5b92915050565b5f6116da826111e7565b91506116e5836111e7565b92508282026116f3816111e7565b9150828204841483151761170a57611709611670565b5b5092915050565b5f61171b826111e7565b9150611726836111e7565b92508261173657611735611613565b5b828204905092915050565b7f4e487b71000000000000000000000000000000000000000000000000000000005f52602260045260245ffd5b5f600282049050600182168061178557607f821691505b60208210810361179857611797611741565b5b50919050565b7f496e697469616c697a61626c653a20636f6e747261637420697320616c7265615f8201527f647920696e697469616c697a6564000000000000000000000000000000000000602082015250565b5f6117f8602e83611370565b91506118038261179e565b604082019050919050565b5f6020820190508181035f830152611825816117ec565b9050919050565b5f819050919050565b5f60ff82169050919050565b5f819050919050565b5f61186461185f61185a8461182c565b611841565b611835565b9050919050565b6118748161184a565b82525050565b5f60208201905061188d5f83018461186b565b92915050565b5f819050919050565b6118ad6118a8826111e7565b611893565b82525050565b5f8160601b9050919050565b5f6118c9826118b3565b9050919050565b5f6118da826118bf565b9050919050565b6118f26118ed82611181565b6118d0565b82525050565b5f81905092915050565b828183375f83830152505050565b5f61191b83856118f8565b9350611928838584611902565b82840190509392505050565b5f61193f828861189c565b60208201915061194f828761189c565b60208201915061195f82866118e1565b601482019150611970828486611910565b91508190509695505050505050565b7f4e487b71000000000000000000000000000000000000000000000000000000005f52604160045260245ffd5b5f819050815f5260205f209050919050565b5f6020601f8301049050919050565b5f82821b905092915050565b5f60088302611a087fffffffffffffffffffffffffffffffffffffffffffffffffffffffffffffffff826119cd565b611a1286836119cd565b95508019841693508086168417925050509392505050565b5f611a44611a3f611a3a846111e7565b611841565b6111e7565b9050919050565b5f819050919050565b611a5d83611a2a565b611a71611a6982611a4b565b8484546119d9565b825550505050565b5f90565b611a85611a79565b611a90818484611a54565b505050565b5b81811015611ab357611aa85f82611a7d565b600181019050611a96565b5050565b601f821115611af857611ac9816119ac565b611ad2846119be565b81016020851015611ae1578190505b611af5611aed856119be565b830182611a95565b50505b505050565b5f82821c905092915050565b5f611b185f1984600802611afd565b1980831691505092915050565b5f611b308383611b09565b9150826002028217905092915050565b611b4982611366565b67ffffffffffffffff811115611b6257611b6161197f565b5b611b6c825461176e565b611b77828285611ab7565b5f60209050601f831160018114611ba8575f8415611b96578287015190505b611ba08582611b25565b865550611c07565b601f198416611bb6866119ac565b5f5b82811015611bdd57848901518255600182019150602085019450602081019050611bb8565b86831015611bfa5784890151611bf6601f891682611b09565b8355505b6001600288020188555050505b505050505050565b5f604082019050611c225f8301856113f9565b611c2f60208301846111f0565b9392505050565b7f70726f6f662077696e646f77732068617320636c6f73656400000000000000005f82015250565b5f611c6a601883611370565b9150611c7582611c36565b602082019050919050565b5f6020820190508181035f830152611c9781611c5e565b9050919050565b7f576f726b207375626d6974206e6f7420636f6d70617461626c652077697468205f8201527f6368616c6c656e67650000000000000000000000000000000000000000000000602082015250565b5f611cf8602983611370565b9150611d0382611c9e565b604082019050919050565b5f6020820190508181035f830152611d2581611cec565b9050919050565b5f819050919050565b611d46611d41826113f0565b611d2c565b82525050565b5f611d578285611d35565b602082019150611d67828461189c565b6020820191508190509392505050565b7f576f726b20646f6573206e6f74206d65657420646966666963756c74792074615f8201527f7267657400000000000000000000000000000000000000000000000000000000602082015250565b5f611dd1602483611370565b9150611ddc82611d77565b604082019050919050565b5f6020820190508181035f830152611dfe81611dc5565b9050919050565b5f611e0f826111e7565b91507fffffffffffffffffffffffffffffffffffffffffffffffffffffffffffffffff8203611e4157611e40611670565b5b600182019050919050565b5f611e578385611370565b9350611e64838584611902565b611e6d836113a8565b840190509392505050565b5f60a0820190508181035f830152611e9181888a611e4c565b9050611ea060208301876111f0565b611ead60408301866111f0565b611eba60608301856113f9565b611ec760808301846111f0565b979650505050505050565b7f4f776e61626c653a206e6577206f776e657220697320746865207a65726f20615f8201527f6464726573730000000000000000000000000000000000000000000000000000602082015250565b5f611f2c602683611370565b9150611f3782611ed2565b604082019050919050565b5f6020820190508181035f830152611f5981611f20565b9050919050565b7f4f776e61626c653a2063616c6c6572206973206e6f7420746865206f776e65725f82015250565b5f611f94602083611370565b9150611f9f82611f60565b602082019050919050565b5f6020820190508181035f830152611fc181611f88565b905091905056fea2646970667358221220b0a886a3265fe148a9945d6270d570dfd4899802f4294abf696d759d94ee7c0064736f6c63430008150033",
  "devdoc": {
    "events": {
      "Initialized(uint8)": {
        "details": "Triggered when the contract has been initialized or reinitialized."
      }
    },
    "kind": "dev",
    "methods": {
      "owner()": {
        "details": "Returns the address of the current owner."
      },
      "renounceOwnership()": {
        "details": "Leaves the contract without owner. It will not be possible to call `onlyOwner` functions. Can only be called by the current owner. NOTE: Renouncing ownership will leave the contract without an owner, thereby disabling any functionality that is only available to the owner."
      },
      "transferOwnership(address)": {
        "details": "Transfers ownership of the contract to a new account (`newOwner`). Can only be called by the current owner."
      }
    },
    "version": 1
  },
  "userdoc": {
    "kind": "user",
    "methods": {
      "initialize()": {
        "notice": "Init"
      }
    },
    "version": 1
  },
  "storageLayout": {
    "storage": [
      {
        "astId": 506,
        "contract": "contracts/LilypadPow.sol:LilypadPow",
        "label": "_owner",
        "offset": 0,
        "slot": "0",
        "type": "t_address"
      },
      {
        "astId": 6,
        "contract": "contracts/LilypadPow.sol:LilypadPow",
        "label": "_initialized",
        "offset": 20,
        "slot": "0",
        "type": "t_uint8"
      },
      {
        "astId": 9,
        "contract": "contracts/LilypadPow.sol:LilypadPow",
        "label": "_initializing",
        "offset": 21,
        "slot": "0",
        "type": "t_bool"
      },
      {
        "astId": 2254,
        "contract": "contracts/LilypadPow.sol:LilypadPow",
        "label": "powSubmissions",
        "offset": 0,
        "slot": "1",
        "type": "t_mapping(t_address,t_array(t_struct(POWSubmission)2236_storage)dyn_storage)"
      },
      {
        "astId": 2258,
        "contract": "contracts/LilypadPow.sol:LilypadPow",
        "label": "minerSubmissionCount",
        "offset": 0,
        "slot": "2",
        "type": "t_mapping(t_address,t_uint256)"
      },
      {
        "astId": 2261,
        "contract": "contracts/LilypadPow.sol:LilypadPow",
        "label": "miners",
        "offset": 0,
        "slot": "3",
        "type": "t_array(t_address)dyn_storage"
      },
      {
        "astId": 2266,
        "contract": "contracts/LilypadPow.sol:LilypadPow",
        "label": "lastChallenges",
        "offset": 0,
        "slot": "4",
        "type": "t_mapping(t_address,t_struct(Challenge)2245_storage)"
      },
      {
        "astId": 2268,
        "contract": "contracts/LilypadPow.sol:LilypadPow",
        "label": "validProofs",
        "offset": 0,
        "slot": "5",
        "type": "t_uint256"
      },
      {
        "astId": 2270,
        "contract": "contracts/LilypadPow.sol:LilypadPow",
        "label": "startTime",
        "offset": 0,
        "slot": "6",
        "type": "t_uint256"
      },
      {
        "astId": 2272,
        "contract": "contracts/LilypadPow.sol:LilypadPow",
        "label": "window_start",
        "offset": 0,
        "slot": "7",
        "type": "t_uint256"
      },
      {
        "astId": 2274,
        "contract": "contracts/LilypadPow.sol:LilypadPow",
        "label": "window_end",
        "offset": 0,
        "slot": "8",
        "type": "t_uint256"
      }
    ],
    "types": {
      "t_address": {
        "encoding": "inplace",
        "label": "address",
        "numberOfBytes": "20"
      },
      "t_array(t_address)dyn_storage": {
        "base": "t_address",
        "encoding": "dynamic_array",
        "label": "address[]",
        "numberOfBytes": "32"
      },
      "t_array(t_struct(POWSubmission)2236_storage)dyn_storage": {
        "base": "t_struct(POWSubmission)2236_storage",
        "encoding": "dynamic_array",
        "label": "struct LilypadPow.POWSubmission[]",
        "numberOfBytes": "32"
      },
      "t_bool": {
        "encoding": "inplace",
        "label": "bool",
        "numberOfBytes": "1"
      },
      "t_bytes32": {
        "encoding": "inplace",
        "label": "bytes32",
        "numberOfBytes": "32"
      },
      "t_mapping(t_address,t_array(t_struct(POWSubmission)2236_storage)dyn_storage)": {
        "encoding": "mapping",
        "key": "t_address",
        "label": "mapping(address => struct LilypadPow.POWSubmission[])",
        "numberOfBytes": "32",
        "value": "t_array(t_struct(POWSubmission)2236_storage)dyn_storage"
      },
      "t_mapping(t_address,t_struct(Challenge)2245_storage)": {
        "encoding": "mapping",
        "key": "t_address",
        "label": "mapping(address => struct LilypadPow.Challenge)",
        "numberOfBytes": "32",
        "value": "t_struct(Challenge)2245_storage"
      },
      "t_mapping(t_address,t_uint256)": {
        "encoding": "mapping",
        "key": "t_address",
        "label": "mapping(address => uint256)",
        "numberOfBytes": "32",
        "value": "t_uint256"
      },
      "t_string_storage": {
        "encoding": "bytes",
        "label": "string",
        "numberOfBytes": "32"
      },
      "t_struct(Challenge)2245_storage": {
        "encoding": "inplace",
        "label": "struct LilypadPow.Challenge",
        "members": [
          {
            "astId": 2238,
            "contract": "contracts/LilypadPow.sol:LilypadPow",
            "label": "challenge",
            "offset": 0,
            "slot": "0",
            "type": "t_bytes32"
          },
          {
            "astId": 2240,
            "contract": "contracts/LilypadPow.sol:LilypadPow",
            "label": "difficulty",
            "offset": 0,
            "slot": "1",
            "type": "t_uint256"
          },
          {
            "astId": 2242,
            "contract": "contracts/LilypadPow.sol:LilypadPow",
            "label": "nodeId",
            "offset": 0,
            "slot": "2",
            "type": "t_string_storage"
          },
          {
            "astId": 2244,
            "contract": "contracts/LilypadPow.sol:LilypadPow",
            "label": "timestamp",
            "offset": 0,
            "slot": "3",
            "type": "t_uint256"
          }
        ],
        "numberOfBytes": "128"
      },
      "t_struct(POWSubmission)2236_storage": {
        "encoding": "inplace",
        "label": "struct LilypadPow.POWSubmission",
        "members": [
          {
            "astId": 2223,
            "contract": "contracts/LilypadPow.sol:LilypadPow",
            "label": "walletAddress",
            "offset": 0,
            "slot": "0",
            "type": "t_address"
          },
          {
            "astId": 2225,
            "contract": "contracts/LilypadPow.sol:LilypadPow",
            "label": "nodeId",
            "offset": 0,
            "slot": "1",
            "type": "t_string_storage"
          },
          {
            "astId": 2227,
            "contract": "contracts/LilypadPow.sol:LilypadPow",
            "label": "nonce",
            "offset": 0,
            "slot": "2",
            "type": "t_uint256"
          },
          {
            "astId": 2229,
            "contract": "contracts/LilypadPow.sol:LilypadPow",
            "label": "start_timestap",
            "offset": 0,
            "slot": "3",
            "type": "t_uint256"
          },
          {
            "astId": 2231,
            "contract": "contracts/LilypadPow.sol:LilypadPow",
            "label": "complete_timestap",
            "offset": 0,
            "slot": "4",
            "type": "t_uint256"
          },
          {
            "astId": 2233,
            "contract": "contracts/LilypadPow.sol:LilypadPow",
            "label": "challenge",
            "offset": 0,
            "slot": "5",
            "type": "t_bytes32"
          },
          {
            "astId": 2235,
            "contract": "contracts/LilypadPow.sol:LilypadPow",
            "label": "difficulty",
            "offset": 0,
            "slot": "6",
            "type": "t_uint256"
          }
        ],
        "numberOfBytes": "224"
      },
      "t_uint256": {
        "encoding": "inplace",
        "label": "uint256",
        "numberOfBytes": "32"
      },
      "t_uint8": {
        "encoding": "inplace",
        "label": "uint8",
        "numberOfBytes": "1"
      }
    }
  }
}