{
  "address": "0xA943d77aA8669975643c98b8cB4c337d3C7eEb6a",
  "abi": [
    {
      "anonymous": false,
      "inputs": [
        {
          "indexed": false,
          "internalType": "uint8",
          "name": "version",
          "type": "uint8"
        }
      ],
      "name": "Initialized",
      "type": "event"
    },
    {
      "anonymous": false,
      "inputs": [
        {
          "indexed": false,
          "internalType": "uint256",
          "name": "id",
          "type": "uint256"
        },
        {
          "indexed": false,
          "internalType": "string",
          "name": "dealId",
          "type": "string"
        },
        {
          "indexed": false,
          "internalType": "string",
          "name": "dataId",
          "type": "string"
        }
      ],
      "name": "JobCompleted",
      "type": "event"
    },
    {
      "anonymous": false,
      "inputs": [
        {
          "indexed": false,
          "internalType": "uint256",
          "name": "id",
          "type": "uint256"
        },
        {
          "indexed": false,
          "internalType": "string",
          "name": "message",
          "type": "string"
        }
      ],
      "name": "JobCreated",
      "type": "event"
    },
    {
      "anonymous": false,
      "inputs": [
        {
          "indexed": true,
          "internalType": "address",
          "name": "previousOwner",
          "type": "address"
        },
        {
          "indexed": true,
          "internalType": "address",
          "name": "newOwner",
          "type": "address"
        }
      ],
      "name": "OwnershipTransferred",
      "type": "event"
    },
    {
      "inputs": [
        {
          "internalType": "uint256",
          "name": "_jobID",
          "type": "uint256"
        }
      ],
      "name": "getJobResult",
      "outputs": [
        {
          "internalType": "string",
          "name": "",
          "type": "string"
        }
      ],
      "stateMutability": "view",
      "type": "function"
    },
    {
      "inputs": [
        {
          "internalType": "address",
          "name": "_jobManagerAddress",
          "type": "address"
        }
      ],
      "name": "initialize",
      "outputs": [],
      "stateMutability": "nonpayable",
      "type": "function"
    },
    {
      "inputs": [],
      "name": "owner",
      "outputs": [
        {
          "internalType": "address",
          "name": "",
          "type": "address"
        }
      ],
      "stateMutability": "view",
      "type": "function"
    },
    {
      "inputs": [],
      "name": "renounceOwnership",
      "outputs": [],
      "stateMutability": "nonpayable",
      "type": "function"
    },
    {
      "inputs": [
        {
          "internalType": "string",
          "name": "message",
          "type": "string"
        }
      ],
      "name": "runCowsay",
      "outputs": [],
      "stateMutability": "nonpayable",
      "type": "function"
    },
    {
      "inputs": [
        {
          "internalType": "address",
          "name": "_jobManagerAddress",
          "type": "address"
        }
      ],
      "name": "setJobManagerAddress",
      "outputs": [],
      "stateMutability": "nonpayable",
      "type": "function"
    },
    {
      "inputs": [
        {
          "internalType": "uint256",
          "name": "id",
          "type": "uint256"
        },
        {
          "internalType": "string",
          "name": "dealId",
          "type": "string"
        },
        {
          "internalType": "string",
          "name": "dataId",
          "type": "string"
        }
      ],
      "name": "submitResults",
      "outputs": [],
      "stateMutability": "nonpayable",
      "type": "function"
    },
    {
      "inputs": [
        {
          "internalType": "address",
          "name": "newOwner",
          "type": "address"
        }
      ],
      "name": "transferOwnership",
      "outputs": [],
      "stateMutability": "nonpayable",
      "type": "function"
    }
  ],
  "transactionHash": "0xe5a9b186fd6393f406cec7e52c323161d6db3024f8ddf0a499691f81584c5429",
  "args": [],
  "numDeployments": 1,
  "solcInputHash": "26a3d6e19028b7f1dccb6c7997bc34c1",
  "bytecode": "0x608060405234801561000f575f80fd5b5061002c61002161003160201b60201c565b61003860201b60201c565b6100f9565b5f33905090565b5f805f9054906101000a900473ffffffffffffffffffffffffffffffffffffffff169050815f806101000a81548173ffffffffffffffffffffffffffffffffffffffff021916908373ffffffffffffffffffffffffffffffffffffffff1602179055508173ffffffffffffffffffffffffffffffffffffffff168173ffffffffffffffffffffffffffffffffffffffff167f8be0079c531659141344cd1fd0a4f28419497f9722a3daafe3b4186f6b6457e060405160405180910390a35050565b611481806101065f395ff3fe608060405234801561000f575f80fd5b5060043610610086575f3560e01c8063c4d66de811610059578063c4d66de8146100fe578063cabc00d11461011a578063ec67df4c14610136578063f2fde38b1461015257610086565b80633b89dcab1461008a5780636c0f1f58146100ba578063715018a6146100d65780638da5cb5b146100e0575b5f80fd5b6100a4600480360381019061009f919061089c565b61016e565b6040516100b19190610951565b60405180910390f35b6100d460048036038101906100cf9190610a9d565b61020f565b005b6100de61026e565b005b6100e8610281565b6040516100f59190610b64565b60405180910390f35b61011860048036038101906101139190610ba7565b6102a8565b005b610134600480360381019061012f9190610bd2565b6103e7565b005b610150600480360381019061014b9190610ba7565b610554565b005b61016c60048036038101906101679190610ba7565b61066e565b005b606060035f8381526020019081526020015f20805461018c90610c46565b80601f01602080910402602001604051908101604052809291908181526020018280546101b890610c46565b80156102035780601f106101da57610100808354040283529160200191610203565b820191905f5260205f20905b8154815290600101906020018083116101e657829003601f168201915b50505050509050919050565b8060035f8581526020019081526020015f20908161022d9190610e13565b507f3849c58b4b39b379bddc5973e71a10ded174f54140916d81986c7eec092e5c4283838360405161026193929190610ef1565b60405180910390a1505050565b6102766106f0565b61027f5f61076e565b565b5f805f9054906101000a900473ffffffffffffffffffffffffffffffffffffffff16905090565b5f8060159054906101000a900460ff161590508080156102d9575060015f60149054906101000a900460ff1660ff16105b8061030757506102e83061082f565b158015610306575060015f60149054906101000a900460ff1660ff16145b5b610346576040517f08c379a000000000000000000000000000000000000000000000000000000000815260040161033d90610fa4565b60405180910390fd5b60015f60146101000a81548160ff021916908360ff16021790555080156103825760015f60156101000a81548160ff0219169083151502179055505b61038b82610554565b80156103e3575f8060156101000a81548160ff0219169083151502179055507f7f26b83ff96e1f2b6a682f133852f6798a09c465da95921460cefb384740249860016040516103da9190611007565b60405180910390a15b5050565b5f600167ffffffffffffffff81111561040357610402610979565b5b60405190808252806020026020018201604052801561043657816020015b60608152602001906001900390816104215790505b5090508160405160200161044a91906110a4565b604051602081830303815290604052815f8151811061046c5761046b6110c5565b5b60200260200101819052505f60025f9054906101000a900473ffffffffffffffffffffffffffffffffffffffff1673ffffffffffffffffffffffffffffffffffffffff1663c75555fa83336040518363ffffffff1660e01b81526004016104d492919061123f565b6020604051808303815f875af11580156104f0573d5f803e3d5ffd5b505050506040513d601f19601f820116820180604052508101906105149190611294565b90507fb63f0fdfb200b05c8b95fb4dcf8f8abd30f0b6884d532792e705afab4f37380a81846040516105479291906112bf565b60405180910390a1505050565b61055c6106f0565b5f73ffffffffffffffffffffffffffffffffffffffff168173ffffffffffffffffffffffffffffffffffffffff16036105ca576040517f08c379a00000000000000000000000000000000000000000000000000000000081526004016105c190611337565b60405180910390fd5b8060015f6101000a81548173ffffffffffffffffffffffffffffffffffffffff021916908373ffffffffffffffffffffffffffffffffffffffff16021790555060015f9054906101000a900473ffffffffffffffffffffffffffffffffffffffff1660025f6101000a81548173ffffffffffffffffffffffffffffffffffffffff021916908373ffffffffffffffffffffffffffffffffffffffff16021790555050565b6106766106f0565b5f73ffffffffffffffffffffffffffffffffffffffff168173ffffffffffffffffffffffffffffffffffffffff16036106e4576040517f08c379a00000000000000000000000000000000000000000000000000000000081526004016106db906113c5565b60405180910390fd5b6106ed8161076e565b50565b6106f8610851565b73ffffffffffffffffffffffffffffffffffffffff16610716610281565b73ffffffffffffffffffffffffffffffffffffffff161461076c576040517f08c379a00000000000000000000000000000000000000000000000000000000081526004016107639061142d565b60405180910390fd5b565b5f805f9054906101000a900473ffffffffffffffffffffffffffffffffffffffff169050815f806101000a81548173ffffffffffffffffffffffffffffffffffffffff021916908373ffffffffffffffffffffffffffffffffffffffff1602179055508173ffffffffffffffffffffffffffffffffffffffff168173ffffffffffffffffffffffffffffffffffffffff167f8be0079c531659141344cd1fd0a4f28419497f9722a3daafe3b4186f6b6457e060405160405180910390a35050565b5f808273ffffffffffffffffffffffffffffffffffffffff163b119050919050565b5f33905090565b5f604051905090565b5f80fd5b5f80fd5b5f819050919050565b61087b81610869565b8114610885575f80fd5b50565b5f8135905061089681610872565b92915050565b5f602082840312156108b1576108b0610861565b5b5f6108be84828501610888565b91505092915050565b5f81519050919050565b5f82825260208201905092915050565b5f5b838110156108fe5780820151818401526020810190506108e3565b5f8484015250505050565b5f601f19601f8301169050919050565b5f610923826108c7565b61092d81856108d1565b935061093d8185602086016108e1565b61094681610909565b840191505092915050565b5f6020820190508181035f8301526109698184610919565b905092915050565b5f80fd5b5f80fd5b7f4e487b71000000000000000000000000000000000000000000000000000000005f52604160045260245ffd5b6109af82610909565b810181811067ffffffffffffffff821117156109ce576109cd610979565b5b80604052505050565b5f6109e0610858565b90506109ec82826109a6565b919050565b5f67ffffffffffffffff821115610a0b57610a0a610979565b5b610a1482610909565b9050602081019050919050565b828183375f83830152505050565b5f610a41610a3c846109f1565b6109d7565b905082815260208101848484011115610a5d57610a5c610975565b5b610a68848285610a21565b509392505050565b5f82601f830112610a8457610a83610971565b5b8135610a94848260208601610a2f565b91505092915050565b5f805f60608486031215610ab457610ab3610861565b5b5f610ac186828701610888565b935050602084013567ffffffffffffffff811115610ae257610ae1610865565b5b610aee86828701610a70565b925050604084013567ffffffffffffffff811115610b0f57610b0e610865565b5b610b1b86828701610a70565b9150509250925092565b5f73ffffffffffffffffffffffffffffffffffffffff82169050919050565b5f610b4e82610b25565b9050919050565b610b5e81610b44565b82525050565b5f602082019050610b775f830184610b55565b92915050565b610b8681610b44565b8114610b90575f80fd5b50565b5f81359050610ba181610b7d565b92915050565b5f60208284031215610bbc57610bbb610861565b5b5f610bc984828501610b93565b91505092915050565b5f60208284031215610be757610be6610861565b5b5f82013567ffffffffffffffff811115610c0457610c03610865565b5b610c1084828501610a70565b91505092915050565b7f4e487b71000000000000000000000000000000000000000000000000000000005f52602260045260245ffd5b5f6002820490506001821680610c5d57607f821691505b602082108103610c7057610c6f610c19565b5b50919050565b5f819050815f5260205f209050919050565b5f6020601f8301049050919050565b5f82821b905092915050565b5f60088302610cd27fffffffffffffffffffffffffffffffffffffffffffffffffffffffffffffffff82610c97565b610cdc8683610c97565b95508019841693508086168417925050509392505050565b5f819050919050565b5f610d17610d12610d0d84610869565b610cf4565b610869565b9050919050565b5f819050919050565b610d3083610cfd565b610d44610d3c82610d1e565b848454610ca3565b825550505050565b5f90565b610d58610d4c565b610d63818484610d27565b505050565b5b81811015610d8657610d7b5f82610d50565b600181019050610d69565b5050565b601f821115610dcb57610d9c81610c76565b610da584610c88565b81016020851015610db4578190505b610dc8610dc085610c88565b830182610d68565b50505b505050565b5f82821c905092915050565b5f610deb5f1984600802610dd0565b1980831691505092915050565b5f610e038383610ddc565b9150826002028217905092915050565b610e1c826108c7565b67ffffffffffffffff811115610e3557610e34610979565b5b610e3f8254610c46565b610e4a828285610d8a565b5f60209050601f831160018114610e7b575f8415610e69578287015190505b610e738582610df8565b865550610eda565b601f198416610e8986610c76565b5f5b82811015610eb057848901518255600182019150602085019450602081019050610e8b565b86831015610ecd5784890151610ec9601f891682610ddc565b8355505b6001600288020188555050505b505050505050565b610eeb81610869565b82525050565b5f606082019050610f045f830186610ee2565b8181036020830152610f168185610919565b90508181036040830152610f2a8184610919565b9050949350505050565b7f496e697469616c697a61626c653a20636f6e747261637420697320616c7265615f8201527f647920696e697469616c697a6564000000000000000000000000000000000000602082015250565b5f610f8e602e836108d1565b9150610f9982610f34565b604082019050919050565b5f6020820190508181035f830152610fbb81610f82565b9050919050565b5f819050919050565b5f60ff82169050919050565b5f610ff1610fec610fe784610fc2565b610cf4565b610fcb565b9050919050565b61100181610fd7565b82525050565b5f60208201905061101a5f830184610ff8565b92915050565b5f81905092915050565b7f4d6573736167653d0000000000000000000000000000000000000000000000005f82015250565b5f61105e600883611020565b91506110698261102a565b600882019050919050565b5f61107e826108c7565b6110888185611020565b93506110988185602086016108e1565b80840191505092915050565b5f6110ae82611052565b91506110ba8284611074565b915081905092915050565b7f4e487b71000000000000000000000000000000000000000000000000000000005f52603260045260245ffd5b7f636f777361793a76302e302e31000000000000000000000000000000000000005f82015250565b5f611126600d836108d1565b9150611131826110f2565b602082019050919050565b5f81519050919050565b5f82825260208201905092915050565b5f819050602082019050919050565b5f82825260208201905092915050565b5f61117f826108c7565b6111898185611165565b93506111998185602086016108e1565b6111a281610909565b840191505092915050565b5f6111b88383611175565b905092915050565b5f602082019050919050565b5f6111d68261113c565b6111e08185611146565b9350836020820285016111f285611156565b805f5b8581101561122d578484038952815161120e85826111ad565b9450611219836111c0565b925060208a019950506001810190506111f5565b50829750879550505050505092915050565b5f6060820190508181035f8301526112568161111a565b9050818103602083015261126a81856111cc565b90506112796040830184610b55565b9392505050565b5f8151905061128e81610872565b92915050565b5f602082840312156112a9576112a8610861565b5b5f6112b684828501611280565b91505092915050565b5f6040820190506112d25f830185610ee2565b81810360208301526112e48184610919565b90509392505050565b7f4a6f62206d616e616765722061646472657373000000000000000000000000005f82015250565b5f6113216013836108d1565b915061132c826112ed565b602082019050919050565b5f6020820190508181035f83015261134e81611315565b9050919050565b7f4f776e61626c653a206e6577206f776e657220697320746865207a65726f20615f8201527f6464726573730000000000000000000000000000000000000000000000000000602082015250565b5f6113af6026836108d1565b91506113ba82611355565b604082019050919050565b5f6020820190508181035f8301526113dc816113a3565b9050919050565b7f4f776e61626c653a2063616c6c6572206973206e6f7420746865206f776e65725f82015250565b5f6114176020836108d1565b9150611422826113e3565b602082019050919050565b5f6020820190508181035f8301526114448161140b565b905091905056fea2646970667358221220e70512fad6a4309e5f14fc3cfa8d43307e2e07c61bd54386b69e7e5424682b7164736f6c63430008150033",
  "devdoc": {
    "events": {
      "Initialized(uint8)": {
        "details": "Triggered when the contract has been initialized or reinitialized."
      }
    },
    "kind": "dev",
    "methods": {
      "owner()": {
        "details": "Returns the address of the current owner."
      },
      "renounceOwnership()": {
        "details": "Leaves the contract without owner. It will not be possible to call `onlyOwner` functions. Can only be called by the current owner. NOTE: Renouncing ownership will leave the contract without an owner, thereby disabling any functionality that is only available to the owner."
      },
      "transferOwnership(address)": {
        "details": "Transfers ownership of the contract to a new account (`newOwner`). Can only be called by the current owner."
      }
    },
    "version": 1
  },
  "userdoc": {
    "kind": "user",
    "methods": {},
    "version": 1
  },
  "storageLayout": {
    "storage": [
      {
        "astId": 506,
        "contract": "contracts/ExampleClient.sol:ExampleClient",
        "label": "_owner",
        "offset": 0,
        "slot": "0",
        "type": "t_address"
      },
      {
        "astId": 6,
        "contract": "contracts/ExampleClient.sol:ExampleClient",
        "label": "_initialized",
        "offset": 20,
        "slot": "0",
        "type": "t_uint8"
      },
      {
        "astId": 9,
        "contract": "contracts/ExampleClient.sol:ExampleClient",
        "label": "_initializing",
        "offset": 21,
        "slot": "0",
        "type": "t_bool"
      },
      {
        "astId": 1571,
        "contract": "contracts/ExampleClient.sol:ExampleClient",
        "label": "jobManagerAddress",
        "offset": 0,
        "slot": "1",
        "type": "t_address"
      },
      {
        "astId": 1574,
        "contract": "contracts/ExampleClient.sol:ExampleClient",
        "label": "jobManagerContract",
        "offset": 0,
        "slot": "2",
        "type": "t_contract(ILilypadJobManager)1816"
      },
      {
        "astId": 1578,
        "contract": "contracts/ExampleClient.sol:ExampleClient",
        "label": "jobResults",
        "offset": 0,
        "slot": "3",
        "type": "t_mapping(t_uint256,t_string_storage)"
      }
    ],
    "types": {
      "t_address": {
        "encoding": "inplace",
        "label": "address",
        "numberOfBytes": "20"
      },
      "t_bool": {
        "encoding": "inplace",
        "label": "bool",
        "numberOfBytes": "1"
      },
      "t_contract(ILilypadJobManager)1816": {
        "encoding": "inplace",
        "label": "contract ILilypadJobManager",
        "numberOfBytes": "20"
      },
      "t_mapping(t_uint256,t_string_storage)": {
        "encoding": "mapping",
        "key": "t_uint256",
        "label": "mapping(uint256 => string)",
        "numberOfBytes": "32",
        "value": "t_string_storage"
      },
      "t_string_storage": {
        "encoding": "bytes",
        "label": "string",
        "numberOfBytes": "32"
      },
      "t_uint256": {
        "encoding": "inplace",
        "label": "uint256",
        "numberOfBytes": "32"
      },
      "t_uint8": {
        "encoding": "inplace",
        "label": "uint8",
        "numberOfBytes": "1"
      }
    }
  }
}