{
  "address": "0xBe72246911F254E3D221C965A50d89C6D660DCc0",
  "abi": [
    {
      "inputs": [
        {
          "internalType": "string",
          "name": "name",
          "type": "string"
        },
        {
          "internalType": "string",
          "name": "symbol",
          "type": "string"
        },
        {
          "internalType": "uint256",
          "name": "initialSupply",
          "type": "uint256"
        }
      ],
      "stateMutability": "nonpayable",
      "type": "constructor"
    },
    {
      "anonymous": false,
      "inputs": [
        {
          "indexed": true,
          "internalType": "address",
          "name": "owner",
          "type": "address"
        },
        {
          "indexed": true,
          "internalType": "address",
          "name": "spender",
          "type": "address"
        },
        {
          "indexed": false,
          "internalType": "uint256",
          "name": "value",
          "type": "uint256"
        }
      ],
      "name": "Approval",
      "type": "event"
    },
    {
      "anonymous": false,
      "inputs": [
        {
          "indexed": true,
          "internalType": "address",
          "name": "previousOwner",
          "type": "address"
        },
        {
          "indexed": true,
          "internalType": "address",
          "name": "newOwner",
          "type": "address"
        }
      ],
      "name": "OwnershipTransferred",
      "type": "event"
    },
    {
      "anonymous": false,
      "inputs": [
        {
          "indexed": true,
          "internalType": "address",
          "name": "from",
          "type": "address"
        },
        {
          "indexed": true,
          "internalType": "address",
          "name": "to",
          "type": "address"
        },
        {
          "indexed": false,
          "internalType": "uint256",
          "name": "value",
          "type": "uint256"
        }
      ],
      "name": "Transfer",
      "type": "event"
    },
    {
      "inputs": [
        {
          "internalType": "address",
          "name": "owner",
          "type": "address"
        },
        {
          "internalType": "address",
          "name": "spender",
          "type": "address"
        }
      ],
      "name": "allowance",
      "outputs": [
        {
          "internalType": "uint256",
          "name": "",
          "type": "uint256"
        }
      ],
      "stateMutability": "view",
      "type": "function"
    },
    {
      "inputs": [
        {
          "internalType": "address",
          "name": "spender",
          "type": "address"
        },
        {
          "internalType": "uint256",
          "name": "amount",
          "type": "uint256"
        }
      ],
      "name": "approve",
      "outputs": [
        {
          "internalType": "bool",
          "name": "",
          "type": "bool"
        }
      ],
      "stateMutability": "nonpayable",
      "type": "function"
    },
    {
      "inputs": [
        {
          "internalType": "address",
          "name": "account",
          "type": "address"
        }
      ],
      "name": "balanceOf",
      "outputs": [
        {
          "internalType": "uint256",
          "name": "",
          "type": "uint256"
        }
      ],
      "stateMutability": "view",
      "type": "function"
    },
    {
      "inputs": [],
      "name": "decimals",
      "outputs": [
        {
          "internalType": "uint8",
          "name": "",
          "type": "uint8"
        }
      ],
      "stateMutability": "view",
      "type": "function"
    },
    {
      "inputs": [
        {
          "internalType": "address",
          "name": "spender",
          "type": "address"
        },
        {
          "internalType": "uint256",
          "name": "subtractedValue",
          "type": "uint256"
        }
      ],
      "name": "decreaseAllowance",
      "outputs": [
        {
          "internalType": "bool",
          "name": "",
          "type": "bool"
        }
      ],
      "stateMutability": "nonpayable",
      "type": "function"
    },
    {
      "inputs": [],
      "name": "disableChangeControllerAddress",
      "outputs": [],
      "stateMutability": "nonpayable",
      "type": "function"
    },
    {
      "inputs": [
        {
          "internalType": "address",
          "name": "_address",
          "type": "address"
        }
      ],
      "name": "escrowBalanceOf",
      "outputs": [
        {
          "internalType": "uint256",
          "name": "",
          "type": "uint256"
        }
      ],
      "stateMutability": "view",
      "type": "function"
    },
    {
      "inputs": [],
      "name": "getControllerAddress",
      "outputs": [
        {
          "internalType": "address",
          "name": "",
          "type": "address"
        }
      ],
      "stateMutability": "view",
      "type": "function"
    },
    {
      "inputs": [
        {
          "internalType": "address",
          "name": "spender",
          "type": "address"
        },
        {
          "internalType": "uint256",
          "name": "addedValue",
          "type": "uint256"
        }
      ],
      "name": "increaseAllowance",
      "outputs": [
        {
          "internalType": "bool",
          "name": "",
          "type": "bool"
        }
      ],
      "stateMutability": "nonpayable",
      "type": "function"
    },
    {
      "inputs": [],
      "name": "name",
      "outputs": [
        {
          "internalType": "string",
          "name": "",
          "type": "string"
        }
      ],
      "stateMutability": "view",
      "type": "function"
    },
    {
      "inputs": [],
      "name": "owner",
      "outputs": [
        {
          "internalType": "address",
          "name": "",
          "type": "address"
        }
      ],
      "stateMutability": "view",
      "type": "function"
    },
    {
      "inputs": [
        {
          "internalType": "uint256",
          "name": "amount",
          "type": "uint256"
        }
      ],
      "name": "payEscrow",
      "outputs": [
        {
          "internalType": "bool",
          "name": "",
          "type": "bool"
        }
      ],
      "stateMutability": "nonpayable",
      "type": "function"
    },
    {
      "inputs": [
        {
          "internalType": "address",
          "name": "fromAddress",
          "type": "address"
        },
        {
          "internalType": "address",
          "name": "toAddress",
          "type": "address"
        },
        {
          "internalType": "uint256",
          "name": "amount",
          "type": "uint256"
        }
      ],
      "name": "payJob",
      "outputs": [
        {
          "internalType": "bool",
          "name": "",
          "type": "bool"
        }
      ],
      "stateMutability": "nonpayable",
      "type": "function"
    },
    {
      "inputs": [
        {
          "internalType": "address",
          "name": "toAddress",
          "type": "address"
        },
        {
          "internalType": "uint256",
          "name": "amount",
          "type": "uint256"
        }
      ],
      "name": "refundEscrow",
      "outputs": [
        {
          "internalType": "bool",
          "name": "",
          "type": "bool"
        }
      ],
      "stateMutability": "nonpayable",
      "type": "function"
    },
    {
      "inputs": [],
      "name": "renounceOwnership",
      "outputs": [],
      "stateMutability": "nonpayable",
      "type": "function"
    },
    {
      "inputs": [
        {
          "internalType": "address",
          "name": "_controllerAddress",
          "type": "address"
        }
      ],
      "name": "setControllerAddress",
      "outputs": [],
      "stateMutability": "nonpayable",
      "type": "function"
    },
    {
      "inputs": [
        {
          "internalType": "address",
          "name": "slashedAddress",
          "type": "address"
        },
        {
          "internalType": "uint256",
          "name": "amount",
          "type": "uint256"
        }
      ],
      "name": "slashEscrow",
      "outputs": [
        {
          "internalType": "bool",
          "name": "",
          "type": "bool"
        }
      ],
      "stateMutability": "nonpayable",
      "type": "function"
    },
    {
      "inputs": [],
      "name": "symbol",
      "outputs": [
        {
          "internalType": "string",
          "name": "",
          "type": "string"
        }
      ],
      "stateMutability": "view",
      "type": "function"
    },
    {
      "inputs": [],
      "name": "totalSupply",
      "outputs": [
        {
          "internalType": "uint256",
          "name": "",
          "type": "uint256"
        }
      ],
      "stateMutability": "view",
      "type": "function"
    },
    {
      "inputs": [
        {
          "internalType": "address",
          "name": "to",
          "type": "address"
        },
        {
          "internalType": "uint256",
          "name": "amount",
          "type": "uint256"
        }
      ],
      "name": "transfer",
      "outputs": [
        {
          "internalType": "bool",
          "name": "",
          "type": "bool"
        }
      ],
      "stateMutability": "nonpayable",
      "type": "function"
    },
    {
      "inputs": [
        {
          "internalType": "address",
          "name": "from",
          "type": "address"
        },
        {
          "internalType": "address",
          "name": "to",
          "type": "address"
        },
        {
          "internalType": "uint256",
          "name": "amount",
          "type": "uint256"
        }
      ],
      "name": "transferFrom",
      "outputs": [
        {
          "internalType": "bool",
          "name": "",
          "type": "bool"
        }
      ],
      "stateMutability": "nonpayable",
      "type": "function"
    },
    {
      "inputs": [
        {
          "internalType": "address",
          "name": "newOwner",
          "type": "address"
        }
      ],
      "name": "transferOwnership",
      "outputs": [],
      "stateMutability": "nonpayable",
      "type": "function"
    }
  ],
  "transactionHash": "0x2397f8e705a6f7c9dff43104c70be2219347ee1f812c0a9afc1ff40e711cec96",
  "args": [
    "Lilypad Token Test",
    "LPTT",
    "1000000000"
  ],
  "numDeployments": 1,
  "solcInputHash": "eeadf98a37382bf741f72e8f89d9f839",
  "bytecode": "0x608060405260018060146101000a81548160ff0219169083151502179055503480156200002a575f80fd5b5060405162002a0038038062002a008339818101604052810190620000509190620004a8565b82826200007262000066620000b360201b60201c565b620000ba60201b60201c565b81600590816200008391906200076d565b5080600690816200009591906200076d565b505050620000aa33826200017b60201b60201c565b50505062000962565b5f33905090565b5f805f9054906101000a900473ffffffffffffffffffffffffffffffffffffffff169050815f806101000a81548173ffffffffffffffffffffffffffffffffffffffff021916908373ffffffffffffffffffffffffffffffffffffffff1602179055508173ffffffffffffffffffffffffffffffffffffffff168173ffffffffffffffffffffffffffffffffffffffff167f8be0079c531659141344cd1fd0a4f28419497f9722a3daafe3b4186f6b6457e060405160405180910390a35050565b5f73ffffffffffffffffffffffffffffffffffffffff168273ffffffffffffffffffffffffffffffffffffffff1603620001ec576040517f08c379a0000000000000000000000000000000000000000000000000000000008152600401620001e390620008af565b60405180910390fd5b620001ff5f8383620002e160201b60201c565b8060045f828254620002129190620008fc565b925050819055508060025f8473ffffffffffffffffffffffffffffffffffffffff1673ffffffffffffffffffffffffffffffffffffffff1681526020019081526020015f205f82825401925050819055508173ffffffffffffffffffffffffffffffffffffffff165f73ffffffffffffffffffffffffffffffffffffffff167fddf252ad1be2c89b69c2b068fc378daa952ba7f163c4a11628f55a4df523b3ef83604051620002c2919062000947565b60405180910390a3620002dd5f8383620002e660201b60201c565b5050565b505050565b505050565b5f604051905090565b5f80fd5b5f80fd5b5f80fd5b5f80fd5b5f601f19601f8301169050919050565b7f4e487b71000000000000000000000000000000000000000000000000000000005f52604160045260245ffd5b6200034c8262000304565b810181811067ffffffffffffffff821117156200036e576200036d62000314565b5b80604052505050565b5f62000382620002eb565b905062000390828262000341565b919050565b5f67ffffffffffffffff821115620003b257620003b162000314565b5b620003bd8262000304565b9050602081019050919050565b5f5b83811015620003e9578082015181840152602081019050620003cc565b5f8484015250505050565b5f6200040a620004048462000395565b62000377565b90508281526020810184848401111562000429576200042862000300565b5b62000436848285620003ca565b509392505050565b5f82601f830112620004555762000454620002fc565b5b815162000467848260208601620003f4565b91505092915050565b5f819050919050565b620004848162000470565b81146200048f575f80fd5b50565b5f81519050620004a28162000479565b92915050565b5f805f60608486031215620004c257620004c1620002f4565b5b5f84015167ffffffffffffffff811115620004e257620004e1620002f8565b5b620004f0868287016200043e565b935050602084015167ffffffffffffffff811115620005145762000513620002f8565b5b62000522868287016200043e565b9250506040620005358682870162000492565b9150509250925092565b5f81519050919050565b7f4e487b71000000000000000000000000000000000000000000000000000000005f52602260045260245ffd5b5f60028204905060018216806200058e57607f821691505b602082108103620005a457620005a362000549565b5b50919050565b5f819050815f5260205f209050919050565b5f6020601f8301049050919050565b5f82821b905092915050565b5f60088302620006087fffffffffffffffffffffffffffffffffffffffffffffffffffffffffffffffff82620005cb565b620006148683620005cb565b95508019841693508086168417925050509392505050565b5f819050919050565b5f620006556200064f620006498462000470565b6200062c565b62000470565b9050919050565b5f819050919050565b620006708362000635565b620006886200067f826200065c565b848454620005d7565b825550505050565b5f90565b6200069e62000690565b620006ab81848462000665565b505050565b5b81811015620006d257620006c65f8262000694565b600181019050620006b1565b5050565b601f8211156200072157620006eb81620005aa565b620006f684620005bc565b8101602085101562000706578190505b6200071e6200071585620005bc565b830182620006b0565b50505b505050565b5f82821c905092915050565b5f620007435f198460080262000726565b1980831691505092915050565b5f6200075d838362000732565b9150826002028217905092915050565b62000778826200053f565b67ffffffffffffffff81111562000794576200079362000314565b5b620007a0825462000576565b620007ad828285620006d6565b5f60209050601f831160018114620007e3575f8415620007ce578287015190505b620007da858262000750565b86555062000849565b601f198416620007f386620005aa565b5f5b828110156200081c57848901518255600182019150602085019450602081019050620007f5565b868310156200083c578489015162000838601f89168262000732565b8355505b6001600288020188555050505b505050505050565b5f82825260208201905092915050565b7f45524332303a206d696e7420746f20746865207a65726f2061646472657373005f82015250565b5f62000897601f8362000851565b9150620008a48262000861565b602082019050919050565b5f6020820190508181035f830152620008c88162000889565b9050919050565b7f4e487b71000000000000000000000000000000000000000000000000000000005f52601160045260245ffd5b5f620009088262000470565b9150620009158362000470565b925082820190508082111562000930576200092f620008cf565b5b92915050565b620009418162000470565b82525050565b5f6020820190506200095c5f83018462000936565b92915050565b61209080620009705f395ff3fe608060405234801561000f575f80fd5b5060043610610140575f3560e01c806388c2bdfe116100b6578063a47029581161007a578063a4702958146103c4578063a9059cbb146103ce578063c57380a2146103fe578063dd62ed3e1461041c578063f2fde38b1461044c578063f3d3d4481461046857610140565b806388c2bdfe146102f85780638da5cb5b1461032857806395d89b4114610346578063987bf9a714610364578063a457c2d71461039457610140565b8063313ce56711610108578063313ce56714610210578063395093511461022e5780635407e93c1461025e578063599efa6b1461028e57806370a08231146102be578063715018a6146102ee57610140565b8063065e86c81461014457806306fdde0314610174578063095ea7b31461019257806318160ddd146101c257806323b872dd146101e0575b5f80fd5b61015e6004803603810190610159919061156f565b610484565b60405161016b91906115d9565b60405180910390f35b61017c610577565b604051610189919061167c565b60405180910390f35b6101ac60048036038101906101a7919061169c565b610607565b6040516101b991906115d9565b60405180910390f35b6101ca610629565b6040516101d791906116e9565b60405180910390f35b6101fa60048036038101906101f5919061156f565b610632565b60405161020791906115d9565b60405180910390f35b610218610660565b604051610225919061171d565b60405180910390f35b6102486004803603810190610243919061169c565b610668565b60405161025591906115d9565b60405180910390f35b61027860048036038101906102739190611736565b61069e565b60405161028591906115d9565b60405180910390f35b6102a860048036038101906102a3919061169c565b610706565b6040516102b591906115d9565b60405180910390f35b6102d860048036038101906102d39190611761565b610866565b6040516102e591906116e9565b60405180910390f35b6102f66108ac565b005b610312600480360381019061030d919061169c565b6108bf565b60405161031f91906115d9565b60405180910390f35b6103306109b8565b60405161033d919061179b565b60405180910390f35b61034e6109df565b60405161035b919061167c565b60405180910390f35b61037e60048036038101906103799190611761565b610a6f565b60405161038b91906116e9565b60405180910390f35b6103ae60048036038101906103a9919061169c565b610ab5565b6040516103bb91906115d9565b60405180910390f35b6103cc610b2a565b005b6103e860048036038101906103e3919061169c565b610b4e565b6040516103f591906115d9565b60405180910390f35b610406610b70565b604051610413919061179b565b60405180910390f35b610436600480360381019061043191906117b4565b610b98565b60405161044391906116e9565b60405180910390f35b61046660048036038101906104619190611761565b610c1a565b005b610482600480360381019061047d9190611761565b610c9c565b005b5f61048d610da4565b508160075f8673ffffffffffffffffffffffffffffffffffffffff1673ffffffffffffffffffffffffffffffffffffffff1681526020019081526020015f2054101561050e576040517f08c379a000000000000000000000000000000000000000000000000000000000815260040161050590611862565b60405180910390fd5b8160075f8673ffffffffffffffffffffffffffffffffffffffff1673ffffffffffffffffffffffffffffffffffffffff1681526020019081526020015f205f82825461055a91906118ad565b9250508190555061056c308484610ed1565b600190509392505050565b6060600580546105869061190d565b80601f01602080910402602001604051908101604052809291908181526020018280546105b29061190d565b80156105fd5780601f106105d4576101008083540402835291602001916105fd565b820191905f5260205f20905b8154815290600101906020018083116105e057829003601f168201915b5050505050905090565b5f80610611611140565b905061061e818585611147565b600191505092915050565b5f600454905090565b5f8061063c611140565b905061064985828561130a565b610654858585610ed1565b60019150509392505050565b5f6012905090565b5f80610672611140565b90506106938185856106848589610b98565b61068e919061193d565b611147565b600191505092915050565b5f6106aa323084610ed1565b8160075f3273ffffffffffffffffffffffffffffffffffffffff1673ffffffffffffffffffffffffffffffffffffffff1681526020019081526020015f205f8282546106f6919061193d565b9250508190555060019050919050565b5f61070f610da4565b505f73ffffffffffffffffffffffffffffffffffffffff168373ffffffffffffffffffffffffffffffffffffffff160361077e576040517f08c379a0000000000000000000000000000000000000000000000000000000008152600401610775906119e0565b60405180910390fd5b8160075f8573ffffffffffffffffffffffffffffffffffffffff1673ffffffffffffffffffffffffffffffffffffffff1681526020019081526020015f205410156107fe576040517f08c379a00000000000000000000000000000000000000000000000000000000081526004016107f590611862565b60405180910390fd5b8160075f8573ffffffffffffffffffffffffffffffffffffffff1673ffffffffffffffffffffffffffffffffffffffff1681526020019081526020015f205f82825461084a91906118ad565b9250508190555061085c308484610ed1565b6001905092915050565b5f60025f8373ffffffffffffffffffffffffffffffffffffffff1673ffffffffffffffffffffffffffffffffffffffff1681526020019081526020015f20549050919050565b6108b4611395565b6108bd5f611413565b565b5f6108c8610da4565b508160075f8573ffffffffffffffffffffffffffffffffffffffff1673ffffffffffffffffffffffffffffffffffffffff1681526020019081526020015f20541015610949576040517f08c379a000000000000000000000000000000000000000000000000000000000815260040161094090611862565b60405180910390fd5b8160075f8573ffffffffffffffffffffffffffffffffffffffff1673ffffffffffffffffffffffffffffffffffffffff1681526020019081526020015f205f82825461099591906118ad565b925050819055506109ae306109a86109b8565b84610ed1565b6001905092915050565b5f805f9054906101000a900473ffffffffffffffffffffffffffffffffffffffff16905090565b6060600680546109ee9061190d565b80601f0160208091040260200160405190810160405280929190818152602001828054610a1a9061190d565b8015610a655780601f10610a3c57610100808354040283529160200191610a65565b820191905f5260205f20905b815481529060010190602001808311610a4857829003601f168201915b5050505050905090565b5f60075f8373ffffffffffffffffffffffffffffffffffffffff1673ffffffffffffffffffffffffffffffffffffffff1681526020019081526020015f20549050919050565b5f80610abf611140565b90505f610acc8286610b98565b905083811015610b11576040517f08c379a0000000000000000000000000000000000000000000000000000000008152600401610b0890611a6e565b60405180910390fd5b610b1e8286868403611147565b60019250505092915050565b610b32611395565b5f600160146101000a81548160ff021916908315150217905550565b5f80610b58611140565b9050610b65818585610ed1565b600191505092915050565b5f60015f9054906101000a900473ffffffffffffffffffffffffffffffffffffffff16905090565b5f60035f8473ffffffffffffffffffffffffffffffffffffffff1673ffffffffffffffffffffffffffffffffffffffff1681526020019081526020015f205f8373ffffffffffffffffffffffffffffffffffffffff1673ffffffffffffffffffffffffffffffffffffffff1681526020019081526020015f2054905092915050565b610c22611395565b5f73ffffffffffffffffffffffffffffffffffffffff168173ffffffffffffffffffffffffffffffffffffffff1603610c90576040517f08c379a0000000000000000000000000000000000000000000000000000000008152600401610c8790611afc565b60405180910390fd5b610c9981611413565b50565b610ca4611395565b5f73ffffffffffffffffffffffffffffffffffffffff168173ffffffffffffffffffffffffffffffffffffffff1603610d12576040517f08c379a0000000000000000000000000000000000000000000000000000000008152600401610d0990611b8a565b60405180910390fd5b600160149054906101000a900460ff16610d61576040517f08c379a0000000000000000000000000000000000000000000000000000000008152600401610d5890611c18565b60405180910390fd5b8060015f6101000a81548173ffffffffffffffffffffffffffffffffffffffff021916908373ffffffffffffffffffffffffffffffffffffffff16021790555050565b5f8073ffffffffffffffffffffffffffffffffffffffff1660015f9054906101000a900473ffffffffffffffffffffffffffffffffffffffff1673ffffffffffffffffffffffffffffffffffffffff1603610e34576040517f08c379a0000000000000000000000000000000000000000000000000000000008152600401610e2b90611b8a565b60405180910390fd5b60015f9054906101000a900473ffffffffffffffffffffffffffffffffffffffff1673ffffffffffffffffffffffffffffffffffffffff16610e74611140565b73ffffffffffffffffffffffffffffffffffffffff1614610eca576040517f08c379a0000000000000000000000000000000000000000000000000000000008152600401610ec190611ca6565b60405180910390fd5b6001905090565b5f73ffffffffffffffffffffffffffffffffffffffff168373ffffffffffffffffffffffffffffffffffffffff1603610f3f576040517f08c379a0000000000000000000000000000000000000000000000000000000008152600401610f3690611d34565b60405180910390fd5b5f73ffffffffffffffffffffffffffffffffffffffff168273ffffffffffffffffffffffffffffffffffffffff1603610fad576040517f08c379a0000000000000000000000000000000000000000000000000000000008152600401610fa490611dc2565b60405180910390fd5b610fb88383836114d4565b5f60025f8573ffffffffffffffffffffffffffffffffffffffff1673ffffffffffffffffffffffffffffffffffffffff1681526020019081526020015f205490508181101561103c576040517f08c379a000000000000000000000000000000000000000000000000000000000815260040161103390611e50565b60405180910390fd5b81810360025f8673ffffffffffffffffffffffffffffffffffffffff1673ffffffffffffffffffffffffffffffffffffffff1681526020019081526020015f20819055508160025f8573ffffffffffffffffffffffffffffffffffffffff1673ffffffffffffffffffffffffffffffffffffffff1681526020019081526020015f205f82825401925050819055508273ffffffffffffffffffffffffffffffffffffffff168473ffffffffffffffffffffffffffffffffffffffff167fddf252ad1be2c89b69c2b068fc378daa952ba7f163c4a11628f55a4df523b3ef8460405161112791906116e9565b60405180910390a361113a8484846114d9565b50505050565b5f33905090565b5f73ffffffffffffffffffffffffffffffffffffffff168373ffffffffffffffffffffffffffffffffffffffff16036111b5576040517f08c379a00000000000000000000000000000000000000000000000000000000081526004016111ac90611ede565b60405180910390fd5b5f73ffffffffffffffffffffffffffffffffffffffff168273ffffffffffffffffffffffffffffffffffffffff1603611223576040517f08c379a000000000000000000000000000000000000000000000000000000000815260040161121a90611f6c565b60405180910390fd5b8060035f8573ffffffffffffffffffffffffffffffffffffffff1673ffffffffffffffffffffffffffffffffffffffff1681526020019081526020015f205f8473ffffffffffffffffffffffffffffffffffffffff1673ffffffffffffffffffffffffffffffffffffffff1681526020019081526020015f20819055508173ffffffffffffffffffffffffffffffffffffffff168373ffffffffffffffffffffffffffffffffffffffff167f8c5be1e5ebec7d5bd14f71427d1e84f3dd0314c0f7b2291e5b200ac8c7c3b925836040516112fd91906116e9565b60405180910390a3505050565b5f6113158484610b98565b90507fffffffffffffffffffffffffffffffffffffffffffffffffffffffffffffffff811461138f5781811015611381576040517f08c379a000000000000000000000000000000000000000000000000000000000815260040161137890611fd4565b60405180910390fd5b61138e8484848403611147565b5b50505050565b61139d611140565b73ffffffffffffffffffffffffffffffffffffffff166113bb6109b8565b73ffffffffffffffffffffffffffffffffffffffff1614611411576040517f08c379a00000000000000000000000000000000000000000000000000000000081526004016114089061203c565b60405180910390fd5b565b5f805f9054906101000a900473ffffffffffffffffffffffffffffffffffffffff169050815f806101000a81548173ffffffffffffffffffffffffffffffffffffffff021916908373ffffffffffffffffffffffffffffffffffffffff1602179055508173ffffffffffffffffffffffffffffffffffffffff168173ffffffffffffffffffffffffffffffffffffffff167f8be0079c531659141344cd1fd0a4f28419497f9722a3daafe3b4186f6b6457e060405160405180910390a35050565b505050565b505050565b5f80fd5b5f73ffffffffffffffffffffffffffffffffffffffff82169050919050565b5f61150b826114e2565b9050919050565b61151b81611501565b8114611525575f80fd5b50565b5f8135905061153681611512565b92915050565b5f819050919050565b61154e8161153c565b8114611558575f80fd5b50565b5f8135905061156981611545565b92915050565b5f805f60608486031215611586576115856114de565b5b5f61159386828701611528565b93505060206115a486828701611528565b92505060406115b58682870161155b565b9150509250925092565b5f8115159050919050565b6115d3816115bf565b82525050565b5f6020820190506115ec5f8301846115ca565b92915050565b5f81519050919050565b5f82825260208201905092915050565b5f5b8381101561162957808201518184015260208101905061160e565b5f8484015250505050565b5f601f19601f8301169050919050565b5f61164e826115f2565b61165881856115fc565b935061166881856020860161160c565b61167181611634565b840191505092915050565b5f6020820190508181035f8301526116948184611644565b905092915050565b5f80604083850312156116b2576116b16114de565b5b5f6116bf85828601611528565b92505060206116d08582860161155b565b9150509250929050565b6116e38161153c565b82525050565b5f6020820190506116fc5f8301846116da565b92915050565b5f60ff82169050919050565b61171781611702565b82525050565b5f6020820190506117305f83018461170e565b92915050565b5f6020828403121561174b5761174a6114de565b5b5f6117588482850161155b565b91505092915050565b5f60208284031215611776576117756114de565b5b5f61178384828501611528565b91505092915050565b61179581611501565b82525050565b5f6020820190506117ae5f83018461178c565b92915050565b5f80604083850312156117ca576117c96114de565b5b5f6117d785828601611528565b92505060206117e885828601611528565b9150509250929050565b7f4c696c79706164546f6b656e3a206e6f7420656e6f7567682066756e647320695f8201527f6e20657363726f77000000000000000000000000000000000000000000000000602082015250565b5f61184c6028836115fc565b9150611857826117f2565b604082019050919050565b5f6020820190508181035f83015261187981611840565b9050919050565b7f4e487b71000000000000000000000000000000000000000000000000000000005f52601160045260245ffd5b5f6118b78261153c565b91506118c28361153c565b92508282039050818111156118da576118d9611880565b5b92915050565b7f4e487b71000000000000000000000000000000000000000000000000000000005f52602260045260245ffd5b5f600282049050600182168061192457607f821691505b602082108103611937576119366118e0565b5b50919050565b5f6119478261153c565b91506119528361153c565b925082820190508082111561196a57611969611880565b5b92915050565b7f4c696c79706164546f6b656e3a20746f416464726573732063616e6e6f7420625f8201527f65207a65726f2061646472657373000000000000000000000000000000000000602082015250565b5f6119ca602e836115fc565b91506119d582611970565b604082019050919050565b5f6020820190508181035f8301526119f7816119be565b9050919050565b7f45524332303a2064656372656173656420616c6c6f77616e63652062656c6f775f8201527f207a65726f000000000000000000000000000000000000000000000000000000602082015250565b5f611a586025836115fc565b9150611a63826119fe565b604082019050919050565b5f6020820190508181035f830152611a8581611a4c565b9050919050565b7f4f776e61626c653a206e6577206f776e657220697320746865207a65726f20615f8201527f6464726573730000000000000000000000000000000000000000000000000000602082015250565b5f611ae66026836115fc565b9150611af182611a8c565b604082019050919050565b5f6020820190508181035f830152611b1381611ada565b9050919050565b7f436f6e74726f6c6c65724f776e61626c653a20436f6e74726f6c6c65722061645f8201527f6472657373206d75737420626520646566696e65640000000000000000000000602082015250565b5f611b746035836115fc565b9150611b7f82611b1a565b604082019050919050565b5f6020820190508181035f830152611ba181611b68565b9050919050565b7f436f6e74726f6c6c65724f776e61626c653a2063616e4368616e6765436f6e745f8201527f726f6c6c6572416464726573732069732064697361626c656400000000000000602082015250565b5f611c026039836115fc565b9150611c0d82611ba8565b604082019050919050565b5f6020820190508181035f830152611c2f81611bf6565b9050919050565b7f436f6e74726f6c6c65724f776e61626c653a204f6e6c792074686520636f6e745f8201527f726f6c6c65722063616e2063616c6c2074686973206d6574686f640000000000602082015250565b5f611c90603b836115fc565b9150611c9b82611c36565b604082019050919050565b5f6020820190508181035f830152611cbd81611c84565b9050919050565b7f45524332303a207472616e736665722066726f6d20746865207a65726f2061645f8201527f6472657373000000000000000000000000000000000000000000000000000000602082015250565b5f611d1e6025836115fc565b9150611d2982611cc4565b604082019050919050565b5f6020820190508181035f830152611d4b81611d12565b9050919050565b7f45524332303a207472616e7366657220746f20746865207a65726f20616464725f8201527f6573730000000000000000000000000000000000000000000000000000000000602082015250565b5f611dac6023836115fc565b9150611db782611d52565b604082019050919050565b5f6020820190508181035f830152611dd981611da0565b9050919050565b7f45524332303a207472616e7366657220616d6f756e74206578636565647320625f8201527f616c616e63650000000000000000000000000000000000000000000000000000602082015250565b5f611e3a6026836115fc565b9150611e4582611de0565b604082019050919050565b5f6020820190508181035f830152611e6781611e2e565b9050919050565b7f45524332303a20617070726f76652066726f6d20746865207a65726f206164645f8201527f7265737300000000000000000000000000000000000000000000000000000000602082015250565b5f611ec86024836115fc565b9150611ed382611e6e565b604082019050919050565b5f6020820190508181035f830152611ef581611ebc565b9050919050565b7f45524332303a20617070726f766520746f20746865207a65726f2061646472655f8201527f7373000000000000000000000000000000000000000000000000000000000000602082015250565b5f611f566022836115fc565b9150611f6182611efc565b604082019050919050565b5f6020820190508181035f830152611f8381611f4a565b9050919050565b7f45524332303a20696e73756666696369656e7420616c6c6f77616e63650000005f82015250565b5f611fbe601d836115fc565b9150611fc982611f8a565b602082019050919050565b5f6020820190508181035f830152611feb81611fb2565b9050919050565b7f4f776e61626c653a2063616c6c6572206973206e6f7420746865206f776e65725f82015250565b5f6120266020836115fc565b915061203182611ff2565b602082019050919050565b5f6020820190508181035f8301526120538161201a565b905091905056fea26469706673582212206c66d48dc5048552523013f8644cdb2e257f181ea0a71ecc97018fb5e50c107a64736f6c63430008150033",
  "devdoc": {
    "events": {
      "Approval(address,address,uint256)": {
        "details": "Emitted when the allowance of a `spender` for an `owner` is set by a call to {approve}. `value` is the new allowance."
      },
      "Transfer(address,address,uint256)": {
        "details": "Emitted when `value` tokens are moved from one account (`from`) to another (`to`). Note that `value` may be zero."
      }
    },
    "kind": "dev",
    "methods": {
      "allowance(address,address)": {
        "details": "See {IERC20-allowance}."
      },
      "approve(address,uint256)": {
        "details": "See {IERC20-approve}. NOTE: If `amount` is the maximum `uint256`, the allowance is not updated on `transferFrom`. This is semantically equivalent to an infinite approval. Requirements: - `spender` cannot be the zero address."
      },
      "balanceOf(address)": {
        "details": "See {IERC20-balanceOf}."
      },
      "decimals()": {
        "details": "Returns the number of decimals used to get its user representation. For example, if `decimals` equals `2`, a balance of `505` tokens should be displayed to a user as `5.05` (`505 / 10 ** 2`). Tokens usually opt for a value of 18, imitating the relationship between Ether and Wei. This is the default value returned by this function, unless it's overridden. NOTE: This information is only used for _display_ purposes: it in no way affects any of the arithmetic of the contract, including {IERC20-balanceOf} and {IERC20-transfer}."
      },
      "decreaseAllowance(address,uint256)": {
        "details": "Atomically decreases the allowance granted to `spender` by the caller. This is an alternative to {approve} that can be used as a mitigation for problems described in {IERC20-approve}. Emits an {Approval} event indicating the updated allowance. Requirements: - `spender` cannot be the zero address. - `spender` must have allowance for the caller of at least `subtractedValue`."
      },
      "increaseAllowance(address,uint256)": {
        "details": "Atomically increases the allowance granted to `spender` by the caller. This is an alternative to {approve} that can be used as a mitigation for problems described in {IERC20-approve}. Emits an {Approval} event indicating the updated allowance. Requirements: - `spender` cannot be the zero address."
      },
      "name()": {
        "details": "Returns the name of the token."
      },
      "owner()": {
        "details": "Returns the address of the current owner."
      },
      "renounceOwnership()": {
        "details": "Leaves the contract without owner. It will not be possible to call `onlyOwner` functions. Can only be called by the current owner. NOTE: Renouncing ownership will leave the contract without an owner, thereby disabling any functionality that is only available to the owner."
      },
      "symbol()": {
        "details": "Returns the symbol of the token, usually a shorter version of the name."
      },
      "totalSupply()": {
        "details": "See {IERC20-totalSupply}."
      },
      "transfer(address,uint256)": {
        "details": "See {IERC20-transfer}. Requirements: - `to` cannot be the zero address. - the caller must have a balance of at least `amount`."
      },
      "transferFrom(address,address,uint256)": {
        "details": "See {IERC20-transferFrom}. Emits an {Approval} event indicating the updated allowance. This is not required by the EIP. See the note at the beginning of {ERC20}. NOTE: Does not update the allowance if the current allowance is the maximum `uint256`. Requirements: - `from` and `to` cannot be the zero address. - `from` must have a balance of at least `amount`. - the caller must have allowance for ``from``'s tokens of at least `amount`."
      },
      "transferOwnership(address)": {
        "details": "Transfers ownership of the contract to a new account (`newOwner`). Can only be called by the current owner."
      }
    },
    "version": 1
  },
  "userdoc": {
    "kind": "user",
    "methods": {},
    "version": 1
  },
  "storageLayout": {
    "storage": [
      {
        "astId": 506,
        "contract": "contracts/LilypadToken.sol:LilypadToken",
        "label": "_owner",
        "offset": 0,
        "slot": "0",
        "type": "t_address"
      },
      {
        "astId": 1330,
        "contract": "contracts/LilypadToken.sol:LilypadToken",
        "label": "controllerAddress",
        "offset": 0,
        "slot": "1",
        "type": "t_address"
      },
      {
        "astId": 1333,
        "contract": "contracts/LilypadToken.sol:LilypadToken",
        "label": "canChangeControllerAddress",
        "offset": 20,
        "slot": "1",
        "type": "t_bool"
      },
      {
        "astId": 627,
        "contract": "contracts/LilypadToken.sol:LilypadToken",
        "label": "_balances",
        "offset": 0,
        "slot": "2",
        "type": "t_mapping(t_address,t_uint256)"
      },
      {
        "astId": 633,
        "contract": "contracts/LilypadToken.sol:LilypadToken",
        "label": "_allowances",
        "offset": 0,
        "slot": "3",
        "type": "t_mapping(t_address,t_mapping(t_address,t_uint256))"
      },
      {
        "astId": 635,
        "contract": "contracts/LilypadToken.sol:LilypadToken",
        "label": "_totalSupply",
        "offset": 0,
        "slot": "4",
        "type": "t_uint256"
      },
      {
        "astId": 637,
        "contract": "contracts/LilypadToken.sol:LilypadToken",
        "label": "_name",
        "offset": 0,
        "slot": "5",
        "type": "t_string_storage"
      },
      {
        "astId": 639,
        "contract": "contracts/LilypadToken.sol:LilypadToken",
        "label": "_symbol",
        "offset": 0,
        "slot": "6",
        "type": "t_string_storage"
      },
      {
        "astId": 5559,
        "contract": "contracts/LilypadToken.sol:LilypadToken",
        "label": "escrowBalances",
        "offset": 0,
        "slot": "7",
        "type": "t_mapping(t_address,t_uint256)"
      }
    ],
    "types": {
      "t_address": {
        "encoding": "inplace",
        "label": "address",
        "numberOfBytes": "20"
      },
      "t_bool": {
        "encoding": "inplace",
        "label": "bool",
        "numberOfBytes": "1"
      },
      "t_mapping(t_address,t_mapping(t_address,t_uint256))": {
        "encoding": "mapping",
        "key": "t_address",
        "label": "mapping(address => mapping(address => uint256))",
        "numberOfBytes": "32",
        "value": "t_mapping(t_address,t_uint256)"
      },
      "t_mapping(t_address,t_uint256)": {
        "encoding": "mapping",
        "key": "t_address",
        "label": "mapping(address => uint256)",
        "numberOfBytes": "32",
        "value": "t_uint256"
      },
      "t_string_storage": {
        "encoding": "bytes",
        "label": "string",
        "numberOfBytes": "32"
      },
      "t_uint256": {
        "encoding": "inplace",
        "label": "uint256",
        "numberOfBytes": "32"
      }
    }
  }
}